:020000040800F2
:100000009804002045010008411700080910000865
:100010009D160008D10500084522000800000000D8
:1000200000000000000000000000000001190008AE
:100030008909000800000000E9170008B51B000846
:100040005F0100085F0100085F0100085F01000810
:100050005F0100085F0100085F0100085F01000800
:100060005F0100085F0100085F0100085F010008F0
:100070005F0100085F0100085F0100085F010008E0
:100080005F0100085F0100085F0100085F010008D0
:100090005F0100085F0100085F0100085F010008C0
:1000A0005F0100085F0100085F0100082D1D0008C6
:1000B000351D00085F0100085F0100085F010008AE
:1000C0005F0100085F0100085F0100085F01000890
:1000D0005F0100085F0100085F0100085F01000880
:1000E0007D0A00085F0100085F0100085F01000849
:1000F0005F0100085F0100085F0100085F01000860
:100100005F0100085F0100085F0100085F0100084F
:100110005F0100085F0100085F0100085F0100083F
:100120005F0100085F0100085F0100085F0100082F
:10013000DFF80CD000F0FCF900480047D927000890
:10014000980400200648804706480047FEE7FEE77F
:10015000FEE7FEE7FEE7FEE7FEE7FEE7FEE7FEE777
:10016000B91B0008310100082DE9FE4F804681EAE5
:100170000300C00F0C46009021F0004123F0004521
:10018000B8EB0200A94105D24046214690461C46E4
:100190000B46024623F00040104347D0270DC7F31B
:1001A0000A00C3F30A510290401A019040286BDA0A
:1001B000C3F3130040F4801B0098924620B1002343
:1001C000D2EB030A63EB0B0B01985946C0F14002D6
:1001D000504600F01EF906460D4650465946019A13
:1001E00000F036F910EB08006141002487EA115253
:1001F00084EAE7731A4340D0009A62B3019A012A55
:100200004FEA075215DC001B61EB02014FF0004280
:1002100002EA0752CDE90042001C41F58011324646
:100220002B4600F036F903B0BDE8F08F404621467A
:10023000F9E7001B61EB0201001C41F58013001877
:100240005B412018A2F5001747EB030140EAD57087
:10025000B6196D4111E06D084FEA360645EAC075E2
:100260004FEA0752001B61EB0201001C41F58011AF
:1002700049084FEA30000019514132462B4603B07D
:10028000BDE8F04F00F0F6B80098012240000023CE
:10029000D0EB020263EBE073009821464FEAE07472
:1002A000B8EB000061EB0401E9E783F000435BE792
:1002B00081F0004158E72DE9FE4F81EA030404F084
:1002C000004421F0004100944FF0000B23F0004364
:1002D00050EA01045ED052EA03045BD0C3F30A542F
:1002E000C1F30A552C44A4F2F3340194A0FB025448
:1002F000C1F3130141F48011C3F3130343F48013DA
:1003000001FB024400FB034E840A970A44EA81542D
:1003100047EA8357A4FB076802958D0A05FB07850A
:100320004FEA932C04FB0C542705029D4FEA065814
:1003300047EA1637B5EB08056EEB070C870E920EF1
:1003400047EA811742EA8312A7FB0201B6EB0B01D1
:1003500064EB00042B0D43EA0C335E1844EB1C5095
:10036000DA465146E7FB0201C5F313044FEA0B33AB
:1003700043EA14534FEA0432019C43EA0603A4F112
:100380000C040294009CCDE900B400F082F803B0A4
:10039000BDE8F08F00200146F9E70EB540F2334189
:1003A00002910021CDE900110A460B4600F071F8D8
:1003B00003B000BDC1F30A5210B5C1F3130140F2FE
:1003C000FF3341F480119A4201DA002010BD40F25F
:1003D00033439A42A2F2334203DC524200F028F83F
:1003E00010BD904010BD30B50B46014600202022C4
:1003F000012409E021FA02F59D4205D303FA02F532
:10040000491B04FA02F52844151EA2F10102F1DC91
:1004100030BD202A04DB203A00FA02F100207047A8
:100420009140C2F1200320FA03F319439040704732
:10043000202A04DB203A21FA02F00021704721FA39
:1004400002F3D040C2F120029140084319467047A0
:10045000202A06DBCB17203A41FA02F043EAE07388
:1004600006E041FA02F3D040C2F120029140084375
:100470001946704710B5141E73F1000408DA401CC9
:1004800041F1000192185B411A4301D120F00100B3
:1004900010BD2DE9F04D92469B4611B1B1FA81F2A3
:1004A00002E0B0FA80F220329046FFF7B2FF044635
:1004B0000F4640EA0A0041EA0B0153465A460843F8
:1004C00013D0114653EA010019D0C8F1400250463A
:1004D000FFF7AEFF05460E46504659464246FFF727
:1004E00098FF084305D0012004E020463946BDE8C6
:1004F000F08D0020054346EAE0762C4337430A9806
:100500006305E40AA0EB08000022FD0A44EA475410
:100510000A3002D500200146E9E7010510196941BA
:10052000DDE9084500196941BDE8F04DA2E700008A
:10053000064C074D06E0E06840F0010394E8070030
:1005400098471034AC42F6D3FFF7F6FD0C320008A2
:100550002C32000808B54FF48060ADF80000102080
:100560008DF8030003208DF802006946164800F05C
:1005700047FB8020ADF8000010208DF80300032019
:100580008DF802006946114800F03AFB4FF48050A4
:10059000ADF8000010208DF8030003208DF8020054
:1005A0006946094800F02CFB4FF48061064800F0D2
:1005B000BDFB8021054800F0B9FB4FF48051024893
:1005C00000F0B2FB08BD0000002001400014014013
:1005D00000BFFEE70C480078404240B20B4908706B
:1005E00009480078404240B209490870064800783E
:1005F000404240B20749087003480078404240B288
:100600000549087070470000220000200400002007
:100610000500002006000020070000200A4890F98D
:1006200000000A490870084890F90000084908705D
:10063000054890F9000007490870034890F9000048
:1006400005490870704700002200002004000020C7
:10065000050000200600002007000020EC200849CB
:100660000870084890F9000007490870EC20074915
:100670000870044800780A3040B205490870704795
:1006800004000020220000200500002006000020B9
:100690000700002010B5944890F9000000281CDDE8
:1006A00092480068904991F9001088420AD24FF4AC
:1006B00000518F4800F03AFB4FF400618C4800F085
:1006C00033FB37E04FF40051894800F02DFB4FF425
:1006D0000061874800F028FB2CE0834890F9000077
:1006E00000281DDA804890F9000040427F490968DF
:1006F00088420AD94FF400517D4800F015FB4FF4B1
:1007000000617B4800F012FB14E04FF40051784880
:1007100000F00AFB4FF40061754800F005FB09E0AA
:100720004FF40051724800F0FFFA4FF40061704836
:1007300000F0FAFA6F4890F9000000281ADD6B48C3
:1007400000686C4991F90010884209D24FF40061A9
:10075000694800F0EBFA0121684800F0E5FA33E05F
:100760004FF40061644800F0DFFA0121634800F0B3
:10077000DBFA29E05F4890F9000000281BDA5D48A9
:1007800090F90000404259490968884209D94FF45C
:100790000061594800F0C8FA0121584800F0C6FA33
:1007A00012E04FF40061544800F0BEFA01215348B2
:1007B00000F0BAFA08E04FF400614F4800F0B4FAD4
:1007C00001214E4800F0B0FA4D4890F90000002891
:1007D0001ADD464800684A4991F90010884209D25A
:1007E0004021464800F0A2FA4FF40071404800F062
:1007F0009BFA33E04021414800F096FA4FF4007133
:100800003B4800F091FA29E03D4890F900000028AB
:100810001BDA3B4890F9000040423449096888429D
:1008200009D94021354800F07FFA4FF40071304873
:1008300000F07CFA12E04021304800F075FA4FF4E5
:1008400000712B4800F070FA08E040212B4800F0BE
:100850006BFA4FF40071264800F066FA294890F9C7
:100860000000002818DD21480068264991F9001091
:10087000884208D21021214800F058FA04211F486C
:1008800000F052FA2FE010211C4800F04DFA04212C
:100890001A4800F049FA26E01A4890F900000028AA
:1008A00019DA184890F90000404210490968884256
:1008B00008D91021114800F037FA04210F4800F040
:1008C00035FA10E010210D4800F02EFA04210B48F3
:1008D00000F02AFA07E01021084800F025FA042168
:1008E000064800F021FA10BD04000020000000209E
:1008F00000200140050000200010014000140140CC
:100900000600002007000020084890F90000084970
:100910000870EC2007490870044800780A3040B29B
:1009200005490870EC200549087070472200002036
:100930000400002005000020060000200700002021
:1009400000200449087004490870044908700449EB
:1009500008707047040000200500002006000020F9
:1009600007000020002007E00021054A22F81010AF
:10097000044A22F81010401C0A28F5DB70470000DA
:100980006C00002080000020704710B5044602E093
:100990008C2000F007F82000A4F10101CCB2F7D1BF
:1009A00010BD000031B5009884B20121094801F062
:1009B00019FA2146074801F07CFA03E0054801F0E6
:1009C00024FA0446012CF9DC0021024801F00AFA5D
:1009D00038BD00000004004000EBC0014FF0E022F1
:1009E00051611146096941F00101116100BF4FF0E9
:1009F000E021096901F480310029F8D000214FF08D
:100A0000E02211619161704700B5034603E04FF4A5
:100A10007A70FFF7E1FF1800A3F10103F7D100BDE1
:100A20001CB54FF4006000900C208DF805000020EC
:100A30008DF804008DF80600684600F047F81CBDEC
:100A400010B50B480068401C09490860084600685A
:100A50000F280BD300200860FFF7E2FF054800686D
:100A60000549086000F064F900F07AF810BD000054
:100A7000380000202C0000203000002010B54FF47A
:100A8000006000F00FF828B14FF4006000F004F8A7
:100A900000F0FAFA10BD000001490860704700003C
:100AA00014040140014600200022074B1B6803EAA2
:100AB0000102054B14331B680B4013B10AB101202E
:100AC00000E000207047000000040140002123499D
:100AD0008279002A3AD00A46126803689A430B4684
:100AE0001A600A1D126803689A430B1D1A60027986
:100AF00011440A6803681A430A60184A08321268E7
:100B000003689A43154B08331A601A1D126803686C
:100B10009A43124B0C331A604279102A0ED11A1FD5
:100B2000126803681A430D4B08331A601A1D1268C5
:100B300003681A43094B0C331A600DE007494279E8
:100B400011440A6803681A430A6005E002791144F7
:100B50000A6803689A430A60704700000004014075
:100B60001CB54FF4006000900C208DF805000020AB
:100B70008DF8040001208DF806006846FFF7A6FFF7
:100B80001CBD10B50121042000F040FE0121082009
:100B900000F03CFE0121102000F038FE0121202051
:100BA00000F034FE0121402000F030FE01218020C1
:100BB00000F02CFE0121080200F028FE10BD00000C
:100BC00030B500228B071C0F0F2303FA04F20B4BE6
:100BD0008C1053F824309343084C8D1044F8253082
:100BE00023468C1053F824308C07240F00FA04F4A9
:100BF0002343024C8D1044F8253030BD08000140DD
:100C00002DE9F041024600250026002000230024A3
:100C1000002791F803C00CF00F0591F803C00CF009
:100C2000100CBCF1000F03D091F802C04CEA05058E
:100C300091F800C0BCF1000F31D0146800202BE007
:100C40004FF0010C0CFA00F3B1F800C00CEA0306F7
:100C50009E4220D183004FF00F0C0CFA03F7BC43E7
:100C600005FA03FC4CEA040491F803C0BCF1280F18
:100C700006D14FF0010C0CFA00FCC2F814C00AE0D7
:100C800091F803C0BCF1480F05D14FF0010C0CFAEC
:100C900000FCC2F810C0401C0828D1D31460B1F881
:100CA00000C0BCF1FF0F34DD546800202EE000F1DD
:100CB000080C4FF0010808FA0CF3B1F800C00CEA78
:100CC00003069E4221D183004FF00F0C0CFA03F76C
:100CD000BC4305FA03FC4CEA040491F803C0BCF1E0
:100CE000280F05D100F1080C08FA0CF8C2F814809E
:100CF00091F803C0BCF1480F07D100F1080C4FF088
:100D0000010808FA0CF8C2F81080401C0828CED35D
:100D10005460BDE8F0810246002093680B400BB19F
:100D2000012000E000207047416170470161704779
:100D300010B54FF480713A48FFF7F6FF01203949AA
:100D400008700021384801F0B4F80121364801F05C
:100D500049F800BF344801F058F80B28FADB0220AC
:100D600030490870C1012E48FFF7E0FF00212E48EE
:100D700001F09FF812E02C4801F047F84EF6602190
:100D800088420BDD0020274908704FF4FA7027498C
:100D900008600021244801F025F810BD4FF480417F
:100DA0002348FFF7B8FF0028E5D000211E4801F0D6
:100DB00080F814E01C4801F028F804464EF6602044
:100DC00084420BDD0020174908704FF4FA70174970
:100DD00008600021144801F005F8DEE700BF4FF479
:100DE00080411348FFF797FF0128E3D00E4801F038
:100DF0000CF81049086000210B4800F0F3FF0D4883
:100E0000006800EB001040004FF4FA6190FBF1F035
:100E10000649086000200349087000BFBDE70000D4
:100E20000014014024000020000800402C00002095
:100E3000000C0140280000202DE9F04786B0002674
:100E4000B146B24600270025A8463748047808E096
:100E5000364830F814203046761C01A921F81020BD
:100E6000641C0A2CF4DB002408E0304830F814201D
:100E70003046761C01A921F81020641C2A4800780D
:100E80008442F2DBBDF8047000240BE001A9601C71
:100E900031F81000B84204DD601C00F0FF0931F8A1
:100EA0001070641C092CF1DBBDF8047000240BE009
:100EB00001A9601C31F81000B84204DA601C00F08F
:100EC000FF0A31F81070641C092CF1DB00240DE0DE
:100ED00054450AD04C4508D001A830F81410601CC5
:100EE00001FB0055404400F0FF08641C0A2CEFDBB6
:100EF000B5FBF8F5002406E001A830F814100CA0AA
:100F000001F074FA641C0A2CF6DB1DB9002006B04F
:100F1000BDE8F08742F6CD00B0FBF5F5294605A007
:100F200001F064FA2846F2E7500000206C0000202F
:100F3000256409000925640D0A0000002DE9F0412F
:100F400085B00023002600270024002200252C481D
:100F5000017807E02B4830F8118018465B1C2DF80B
:100F60001080491C0A29F5DB002107E0254830F8EC
:100F7000118018465B1C2DF81080491C2048007811
:100F80008142F3DBBDF80040002109E0481C3DF838
:100F90001000A04203DD481CC6B23DF81040491CB9
:100FA0000929F3DBBDF80040002109E0481C3DF8A9
:100FB0001000A04203DA481CC7B23DF81040491C9B
:100FC0000929F3DB00210BE0B94208D0B14206D079
:100FD0003DF811C0481C0CFB00222844C5B2491C36
:100FE0000A29F1DBB2FBF5F21AB9002005B0BDE821
:100FF000F08142F6CD00B0FBF2F21046F6E70000B9
:10100000510000208000002000BFFEE71FB5012135
:10101000084600F0FBFB4FF40060ADF80C004820E0
:101020008DF80F0003208DF80E0003A91548FFF777
:10103000E7FD0B210320FFF7C3FD4FF40060019093
:101040000C208DF8090000208DF8080001208DF893
:101050000A0001A8FFF73AFD4FF4A06000F0AAFBD8
:1010600028208DF8000001208DF8010003208DF864
:10107000020001208DF80300684600F063FB00F0D9
:1010800099FF1FBD0014014070B500260F20FFF727
:101090007CFC4FF400615748FFF73DFE012800D16A
:1010A00070BD28205449087002E00120FFF76DFC54
:1010B0004FF400614F48FFF72EFE0028F5D00024C2
:1010C0003AE0002534E002E00120FFF75EFC4FF437
:1010D00000614848FFF71FFE0028F5D102E001201B
:1010E000FFF753FC4FF400614248FFF714FE00285D
:1010F000F5D007E00120FFF748FC701CC6B21E2E99
:1011000000DBCDE74FF400613A48FFF704FE00280A
:10111000F0D13A48005D401038490855082E04DBEC
:101120000846005D40F0800008550026681CC5B2E6
:10113000082DC8DB601CC4B2042CC2DB2F48C07869
:10114000C043C5B22D488078A84200D0A8E72B48FC
:10115000807840282AD00CDC15281BD004DC082815
:101160002CD00C283ED125E018282BD01C2839D1B2
:101170002CE046280AD004DC432813D0442831D17F
:101180000CE05A282AD05E282CD123E041201C49AB
:10119000087028E042201A49087024E043201849CA
:1011A000087020E04420164908701CE049201449CA
:1011B000087018E045201249087014E046201049D4
:1011C000087010E047200E4908700CE048200C49D8
:1011D000087008E04A200A49087004E04B200849DA
:1011E000087000E05CE700BF01200649087000BFFE
:1011F00056E70000001401400D0000201E000020F2
:101200000C0000201D00002010B5162400F0F6F898
:101210004FF480512A48FFF787FD40F6B830FFF7BA
:10122000DBFB4FF480512648FFF780FD3220FFF7AB
:10123000D3FBE22000F050F90F20FFF7CDFB2C206C
:1012400000F04AF90F20FFF7C7FB2E2000F044F909
:101250000F20FFF7C1FB2F2000F03EF90F20FFF712
:10126000BBFB242000F038F9812000F035F916206E
:1012700000F032F9A22000F02FF9C82000F02CF97C
:10128000A02000F029F9402000F026F9AF2000F05E
:1012900023F900F005F90BA20021084600F01AFC22
:1012A0000DA20121002000F015FC10A20221002057
:1012B00000F010FC12A20321002000F00BFC10BD76
:1012C00000100140202020563A202020636D2F730B
:1012D0002020202000000000202020443A20202050
:1012E000636D2020202020200000000020202020EE
:1012F000202020202020202020202020000000006E
:1013000020206B3A2020202020623A20202020201C
:101310000000000038B50446962C05D90AA2012128
:10132000282000F0D7FB38BD224608A1684601F00E
:101330006DF800208DF803006A460121282000F096
:10134000C9FB00BFEFE700002D2D2D0025303364D1
:101350000000000010B5044600BF03A202211820BF
:1013600000F0B8FB10BD000020202020202020200D
:101370002020000038B504460D4622460CA16846E0
:1013800001F044F800208DF803006A460321202074
:1013900000F0A0FB2A4606A1684601F037F80020BD
:1013A0008DF803006A460321582000F093FB38BDF6
:1013B000253033640000000038B50446224606A1FB
:1013C000684601F023F800208DF803006A460021EA
:1013D000282000F07FFB38BD25303364000000007A
:1013E00010B503A20221182000F074FB10BD00000C
:1013F0005761726E696E67212121000008B54FF4B4
:101400008060ADF8000003208DF8020010208DF8F8
:10141000030069461C48FFF7F3FB4FF48050ADF81A
:10142000000003208DF8020010208DF803006946AB
:101430001548FFF7E5FB2020ADF8000003208DF8EC
:10144000020010208DF8030069461048FFF7D8FB12
:101450000820ADF8000003208DF8020010208DF860
:10146000030069460948FFF7CBFB0220ADF80000F6
:1014700003208DF8020010208DF803006946034810
:10148000FFF7BEFB08BD0000001001400014014042
:101490000249C9684140014AD160704700200140BB
:1014A00070B5002415E004F1B001C8B200F014F8E2
:1014B000102000F011F8002000F00EF8002504E0E4
:1014C000002000F03BF8681CC5B2802DF8DB601CE2
:1014D000C4B2082CE7DB70BD70B504464FF48061E0
:1014E0001448FFF721FC20211348FFF71DFC0025BD
:1014F00017E008211048FFF717FC04F0800020B126
:1015000002210D48FFF712FC03E002210A48FFF711
:101510000BFC08210848FFF709FC6006040E681C54
:1015200045B2082DE5DB4FF480610248FFF7FEFB72
:1015300070BD0000001001400014014070B5044669
:101540004FF480611448FFF7EFFB20211348FFF7A9
:10155000EDFB002517E008211048FFF7E5FB04F03C
:10156000800020B102210D48FFF7E0FB03E00221DB
:101570000A48FFF7D9FB08210848FFF7D7FB6006A8
:10158000040E681C45B2082DE5DB4FF4806102486B
:10159000FFF7CCFB70BD00000010014000140140BB
:1015A00000B589B00121C80200F030F94FF6FF7094
:1015B000ADF8140041F61F40ADF810000020ADF862
:1015C0001600ADF81200ADF80400ADF806000120D9
:1015D000ADF808000020ADF80A000F20ADF80C00AF
:1015E0004FF48070ADF8200004208DF82300032014
:1015F0008DF8220008A92748FFF702FB01A9264819
:1016000000F017FC01220221234800F049FC0C20C5
:10161000ADF804000020ADF806000120ADF8080088
:101620000020ADF80A000F20ADF80C004FF4006068
:10163000ADF8200004208DF8230003208DF822004F
:1016400008A91448FFF7DCFA01A9134800F0F1FBE0
:1016500001221021104800F023FC4FF4A06000F09C
:10166000A9F81B208DF81C0000208DF81D008DF8B6
:101670001E0001208DF81F0007A800F063F804A9E0
:10168000054800F045FC0121034800F0ABFB09B020
:1016900000BD000000080140002C014000BFFEE733
:1016A00008B54FF40050ADF8000002208DF802009C
:1016B00010208DF8030069461B48FFF7A1FA4FF48C
:1016C0000060ADF8000069461748FFF799FA4FF43B
:1016D0000060ADF8000069461448FFF791FA012058
:1016E000ADF8000069461248FFF78AFA4020ADF8CD
:1016F000000069460E48FFF783FA4FF40070ADF81A
:10170000000069460848FFF77BFA1020ADF800009A
:1017100069460748FFF774FA0420ADF800006946EF
:101720000348FFF76DFA08BD00200140001001409A
:101730000014014010B5FFF7B3FFFFF701F910BD2A
:101740007047000070B5002100230F22C47804B355
:10175000154C246804F4E064C4F5E064210AC1F186
:101760000403CA40447804FA03F184781440214306
:1017700009010E4C0678A155047804F01F050124D8
:10178000AC4005786D11AD0005F1E025C5F80041CC
:1017900009E0047804F01F050124AC40044D0678EC
:1017A000761145F8264070BD0CED00E000E400E045
:1017B00080E100E002490143024A116070470000E5
:1017C0000000FA050CED00E008B51C208DF80000C3
:1017D00000208DF8010001208DF802008DF8030033
:1017E0006846FFF7AFFF08BD7047000029B1064A01
:1017F000D2690243044BDA6104E0034AD2698243AE
:10180000014BDA61704700000010024029B1064A1E
:1018100092690243044B9A6104E0034A926982434D
:10182000014B9A61704700000010024030B5002162
:101830000022002400232D4D6D6805F00C0121B11C
:10184000042905D0082923D105E0294D056022E0AF
:10185000274D05601FE0254D6D6805F47012234D7E
:101860006D6805F48034022505EB92421CB9214DC8
:10187000554305600BE01D4D6D6805F400351DB145
:101880001C4D5543056002E0194D5543056002E0CB
:10189000174D056000BF00BF144D6D6805F0F001E5
:1018A0000909154D6B5C0568DD4045600F4D6D689D
:1018B00005F4E061090A104D6B5C4568DD40856008
:1018C0000A4D6D6805F46051C90A0B4D6B5C4568A3
:1018D000DD40C560054D6D6805F44041890B074D3D
:1018E0006B5CC568B5FBF3F5056130BD00100240C7
:1018F00000127A0000093D00520000206200002022
:10190000704700000146002008E000EB0012084B81
:101910001A44127C8A4200D17047401C00EB00122E
:10192000034B1A44127C202AEFD100BFF4E70000D9
:10193000CC2B000808B54FF48050ADF80000102003
:101940008DF8030003208DF8020069460448FFF774
:1019500057F94FF480510248FFF7E8F908BD00003D
:101960000014014010B500F001F810BD0CB50020C6
:10197000019000903348006840F48030314908609D
:1019800000BF3048006800F4003000900198401C0F
:101990000190009818B90198B0F5A06FF1D12948CD
:1019A000006800F4003010B10120009001E0002038
:1019B00000900098012843D12348006840F01000AF
:1019C000214908600846006820F0030008600846C6
:1019D000006840F0020008601A48406819494860F1
:1019E0000846406848600846406840F480604860A7
:1019F0000846406820F47C1048600846406840F47F
:101A0000E81048600846006840F08070086000BF39
:101A10000C48006800F000700028F9D009484068C0
:101A200020F00300074948600846406840F0020083
:101A3000486000BF0348406800F00C000828F9D156
:101A40000CBD000000100240002002402DE9F05FB4
:101A500005460F4691463E46072E01DDBDE8F09F44
:101A6000802D00DDFAE706F1B000C6B23046FFF780
:101A700033FD4FEA151805F00F0A08F11001C8B23E
:101A8000FFF72AFD5046FFF727FD4846FFF73AFFCC
:101A900000F0FF0B002416E0082C0BD1711CC8B21B
:101AA000FFF71AFD08F11001C8B2FFF715FD504607
:101AB000FFF712FD0BEB0B11054A1144085DFFF710
:101AC0003DFD601CC4B2102CE6DB00BFC6E7000081
:101AD000CC2B00082DE9F04105460F4614462E4652
:101AE000B8460FE022784FEA4863190EF0B2FFF7CC
:101AF000ADFF083606F10800802802D92E4608F10D
:101B00000108641C20780028ECD1BDE8F0810000B9
:101B100010B51F480068FFF74FFC1E480068FFF72C
:101B2000F9FB1D4801781D480078FFF723FC1C488D
:101B30000068FFF70FFC1B48007801281ED11A48E7
:101B4000007860B980211948FFF7F0F84FF4805110
:101B50001748FFF7E9F801201349087017E0FFF76D
:101B60003FFC80211148FFF7DFF84FF48051104807
:101B7000FFF7DCF800200C49087008E080210B48D2
:101B8000FFF7D4F84FF480510948FFF7CDF810BDA6
:101B9000100000202C000020190000201800002058
:101BA000140000201A0000201C0000200014014036
:101BB000002001407047000010B51148006840F057
:101BC00001000F490860084640680E4908400C496A
:101BD0004860084600680C49084009490860084602
:101BE000006820F4802008600846406820F4FE0069
:101BF00048604FF41F008860FFF7B4FE10BD00007E
:101C0000001002400000FFF8FFFFF6FEF0B50C46A2
:101C1000154600210022068C4FF6FE773E400684D2
:101C2000018B028C4FF60C7631407E1C06EA0316BF
:101C30002E4331437E1E324044F00106324301837D
:101C40000284F0BDF0B50C461546002100220026A6
:101C5000078C4FF6EF7C07EA0C070784018B028C98
:101C60004FF6FF7707EA041640F6FF4739404FF674
:101C7000FF7707EA033739434FF6FF7707EA05276F
:101C800039434FF6DF773A4046F010073A43018375
:101C90000284F0BDF0B50C46154600210022002656
:101CA000078C4FF6FF6C07EA0C070784818B028CC8
:101CB0004FF6FF7707EA04264FF60C7739404FF6C8
:101CC000FF7707EA03172F4339434FF6FF573A4090
:101CD00046F480773A4381830284F0BDF0B50C4628
:101CE0001546002100220026078C4EF6FF7C07EAED
:101CF0000C070784818B028C4FF6FF7707EA0436C6
:101D000040F6FF4739404FF6FF7707EA052739438A
:101D10004FF6FF7707EA033739434DF6FF773A402E
:101D200046F480573A4381830284F0BD10B500F039
:101D3000A3FA10BD10B50121880700F069F808B3B7
:101D40000121880700F04BF80F480078401C0E492D
:101D50000870084600780A2814DB002008700B4839
:101D60000068401C0949086009480078401C08497F
:101D7000087006480068322802D300200349086032
:101D8000FEF788FC10BD00000900002000000020C4
:101D9000080000200EB501210846FFF727FD63204B
:101DA000ADF804004720ADF800000020ADF80600B3
:101DB000ADF8020069464FF0804000F0A9F801211B
:101DC000880700F00CF801221146900700F068F82F
:101DD0000121880700F006F8FFF7F6FC0EBDCA43A4
:101DE0000282704721B1028842F00102028004E0C1
:101DF00002884FF6FE731A40028070470146888EB3
:101E000070470146B1F8400070470146888C704722
:101E100030B50246002000230024158A05EA01039C
:101E2000958905EA010413B10CB1012000E00020FE
:101E300030BD70B505460C46208850B92389A2886C
:101E400061882846FFF7E2FEE188284600F033F873
:101E500025E0208804280AD12389A28861882846A1
:101E6000FFF7F0FEE188284600F02EF817E0208802
:101E700008280AD12389A28861882846FFF70AFF2B
:101E8000E188284600F02DF809E02389A2886188BE
:101E90002846FFF723FFE188284600F02BF870BDA5
:101EA0001AB183890B43838102E083898B43838149
:101EB000704781847047028B4FF6F3731A40028398
:101EC000028B0A4302837047028B4FF2FF331A40A2
:101ED0000283028B4FF6FF7303EA01231A43028346
:101EE0007047828B4FF6F3731A408283828B0A43CA
:101EF00082837047828B4FF2FF331A408283828B3A
:101F00004FF6FF7303EA01231A43828370470000F0
:101F1000002202881D4B98420ED01D4B98420BD0D8
:101F2000B0F1804F08D01B4B984205D01A4B984215
:101F300002D01A4B984204D14FF68F731A404B8847
:101F40001A43174B984207D0164B984204D04FF6CD
:101F5000FF431A40CB881A4302808B8883850B8805
:101F600003850A4B98420BD0094B984208D00E4B80
:101F7000984205D00D4B984202D00D4B984201D1AA
:101F80000B7A03860123838270470000002C0140F6
:101F9000003401400004004000080040000C0040F4
:101FA0000010004000140040004001400044014087
:101FB000004801400EB501210220FFF717FC012067
:101FC000ADF804004720ADF800001020ADF8020085
:101FD00069460248FFF79CFF0EBD00000004004068
:101FE0000EB501210420FFF701FC4FF6FF70ADF89C
:101FF00004004720ADF800000020ADF8020069465B
:102000000148FFF785FF0EBD0008004010B586B0FF
:10201000044601218804FFF7E9FB4FF48060ADF826
:10202000040002208DF8060018208DF8070001A991
:102030001348FEF7E5FD04208DF807004002ADF8D7
:10204000040001A90E48FEF7DBFD02940020ADF864
:102050000C00ADF80E00ADF81000ADF814000C2027
:10206000ADF8120002A9074800F030F80121054838
:1020700000F013F84021034800F006F806B010BD48
:10208000000C01400048004001F40072B2F5007FEE
:1020900000D100BFCA430280704721B1828942F457
:1020A0000052828104E082894DF6FF731A408281DA
:1020B000704702460020B1F5007F00D100BF1388B1
:1020C0000B400BB1012000E0002070472DE9F047E4
:1020D00086B005460E460024A24600BFA146002752
:1020E000B08900B100BF2F462C8A4CF6FF70044027
:1020F000F08804432C82AC894EF6F3100440B0887B
:1021000031890843718908430443AC81AC8A4FF696
:10211000FF400440B0890443AC8201A8FFF786FB6E
:102120001F48874202D1DDF810A001E0DDF80CA0C5
:10213000A88900F4004040B10AEBCA0000EB0A1085
:1021400031684900B0FBF1F807E00AEBCA0000EB88
:102150000A1031688900B0FBF1F86420B8FBF0F098
:1021600004012009642101FB1089A88900F40040C2
:1021700040B1322000EBC900B0FBF1F000F00700E5
:10218000044308E0322000EB09106421B0FBF1F0B9
:1021900000F00F0004432C8106B0BDE8F08700007A
:1021A00000380140C1F30802828070471FB54FF428
:1021B0008040ADF80C0048208DF80F0003208DF80A
:1021C0000E0003A91E48FEF71BFD4FF48070ADF80A
:1021D0000C0010208DF80F0003208DF80E0003A9CD
:1021E0001748FEF70DFD0E210120FEF7E9FC4FF424
:1021F000804001900C208DF8090000208DF8080027
:102200008DF80A0001A8FEF761FC4FF4A060FFF70B
:10221000D1FA28208DF8000000208DF8010002205E
:102220008DF8020001208DF803006846FFF78AFA56
:10223000FFF7D6FE4FF480710148FEF777FD1FBD12
:102240000014014000BFFEE708B54FF40040ADF8B0
:10225000000010208DF8030003208DF8020069466D
:102260000448FEF7CDFC4FF400410248FEF75EFD46
:1022700008BD00000020014010B502214D48FFF7C5
:10228000C7FD012847D164204B4908600221494815
:10229000FFF7A5FD4948008840B94648FFF7AEFD65
:1022A0004749088001204549088034E043480088B8
:1022B000012830D13F48FFF7A1FD42490880084678
:1022C00000883F490988884207DD3E4800883C492C
:1022D0000988401A3C49088009E0394800884FF6CF
:1022E000FF71081A37490988084437490880364978
:1022F0000A8836490878411C344B1970344921F852
:102300001020184600780A2802D1002019460870CB
:1023100000202A49088010212648FFF779FD01286E
:1023200047D164202449086010212248FFF757FD57
:102330002848008840B91F48FFF763FD26490880F8
:1023400001202449088034E022480088012830D147
:102350001848FFF756FD21490880084600881E49A5
:102360000988884207DD1D4800881B490988401AF2
:102370001B49088009E0184800884FF6FF71081AC9
:102380001649098808441649088015490A881549DC
:102390000878411C134B1970134921F81020184676
:1023A00000780A2802D10020194608700020094947
:1023B000088010BD002C01404C000020400000208F
:1023C0003C0000203E000020420000205000002081
:1023D0006C0000204800002044000020460000203F
:1023E0004A00002051000020800000200FB4054B5F
:1023F00010B503A9044A029800F02CF810BC5DF84F
:1024000014FB0000B5270008680000200FB4084B3B
:1024100010B504A902AA039800F01CF8044602A90A
:10242000002000F0B8F9204610BC5DF814FB000055
:102430009727000802E008C8121F08C1002AFAD135
:1024400070477047002001E001C1121F002AFBD134
:10245000704700002DE9FF4F8BB0884605460026E7
:1024600006E025280BD0DDE90D1290476D1C761C87
:1024700028780028F5D10FB03046BDE8F08F002451
:10248000A146A2460122AE4900E0044315F8013FEF
:10249000203B02FA03F00842F7D128782A2810D00E
:1024A0006FF02F022878A0F13001092915D809EB27
:1024B000890102EB410144F0020400EB01096D1CAB
:1024C000F0E758F8041B5FEA010903D544F400540F
:1024D000C9F1000944F002046D1C28782E2817D198
:1024E00015F8010F44F004042A280ED06FF02F02D3
:1024F0002878A0F1300109290AD80AEB8A0102EBF9
:10250000410100EB010A6D1CF2E758F804AB6D1CA9
:1025100028786C280FD006DC4C2817D068280DD0FE
:102520006A2814D104E0742810D07A280FD10DE065
:1025300044F400140AE044F4801401E044F440142C
:102540006978814202D104F580146D1C6D1C2878D5
:10255000692865D006DC00288DD0632827D0642840
:1025600006D15DE06E2808D073282AD0752877D070
:10257000DDE90D129047761CE0E0C4F3025002281A
:1025800009D003280DD0D8F8001004280DD00E6013
:1025900008F10408D2E0D8F80010F217C1E900628F
:1025A000F6E7D8F800100E80F2E70E70F0E718F8A2
:1025B000041B8DF8001000208DF80100EB4601206F
:1025C00003E058F804BB4FF0FF3061074FF00007FD
:1025D00001D40AE07F1C57450DDA8742FADB1BF86D
:1025E00007100029F6D106E07F1C8742FCDB1BF8B0
:1025F00007100029F8D1DDE90D23A9EB070081467A
:10260000214600F0B1F83044C61904E0DDE90D12AE
:102610001BF8010B90477F1EF8D22146484688E000
:1026200058F8040BC4F302514FF00A0B032900D1F0
:1026300000B2042900D140B2002802DA40422D2124
:1026400002E0210505D52B218DF82410012104E09D
:1026500006E0E10710D02021F6E708AF089113E06B
:1026600058F8040BC4F302514FF00A0B032900D1B0
:1026700080B2042900D1C0B20021EEE75946FDF72F
:10268000B2FE303107F8011D0028F7D1ADEB07008D
:1026900000F1200B600702D524F4803401E04FF0F4
:1026A000010ADA4502DDAAEB0B0000E000208246B9
:1026B00000EB0B0108980144A9EB01000A90E0032C
:1026C00006D4DDE90D2321460A9800F04DF80644B2
:1026D0004FF0000908E009A911F80900DDE90D1221
:1026E000904709F10109761C08998945F3DBE0035D
:1026F0000CD5DDE90D2321460A9800F035F8064493
:1027000004E0DDE90D1230209047761CBAF100019B
:10271000AAF1010AF5DC05E0DDE90D1217F8010B5D
:102720009047761CBBF10001ABF1010BF4DC0A9879
:102730002146DDE90D2300F005F806446D1C97E6FF
:10274000092801002DE9F041044600251E461746E0
:10275000880404D405E039462020B0476D1C641E6F
:10276000F9D52846BDE8F0812DE9F0410446002561
:102770001E469046C80301D5302700E02027880474
:1027800004D505E041463846B0476D1C641EF9D5B6
:102790002846BDE8F0810A68531C0B601070704732
:1027A0004FF0E020006920F004004FF0E0210861C4
:1027B0007047000070B504460D46E1B20548FFF7CA
:1027C000F1FC00BF40210348FFF773FC0028F9D05B
:1027D000204670BD0048004088B0FFF7E1FFFEF7DB
:1027E000D0F9FFF731FDFEF70FFDFEF70FFCFFF705
:1027F000D1FAFEF79FFFFFF7D9FCFFF79BF8FDF733
:10280000A9FEFEF7CDFE4FF41650FFF7FFFB4FF485
:1028100080619748FEF788FA29E1964800780528F4
:10282000FADB00209349087093480078401C9249D5
:10283000087092480078401C904908708E480078D3
:10284000282806DB00208C4908704FF40040FEF772
:102850001FFE8A480078142845DB0020874908704D
:10286000FEF7EAFA8246FEF769FB8346DA4503D9AA
:102870008348C0F800A002E08148C0F800B0814859
:102880000078FDF78AFD044600227F4BFDF713FD1B
:10289000CDE902017A480068FDF77FFD04460D4648
:1028A0007A480078FDF779FD0646794A794BFDF7BD
:1028B00002FD804622462B46FDF7FDFCCDE90001D6
:1028C000DDE90223FDF750FC00226F4BCDE9040146
:1028D000FDF74AFCCDE90601FDF76CFD6E49086085
:1028E000FFF716F900BF6D480068401E6B4908608D
:1028F0000846006818B901200860FEF733F86848F8
:102900000078401E664908700846007828B9012002
:102910000870FEF715F8FEF725F8FEF791F8614804
:1029200000685D490968884226D85F4800685A49AE
:102930000968884220D852480068E8B15B480078AE
:10294000422819D001205A490870574800681E28AB
:1029500015D2FDF73FFE3220FEF756F8FDF7F0FFE7
:102960003220FEF751F8142044490870FDF7FAFFB1
:102970003220FEF749F802E000204D4908704D482A
:102980000078012873D100204A490870474890F91F
:10299000000041380B2868D2DFE800F0060D101364
:1029A00019273541164D59003F4800681E2801D3AC
:1029B000FDF734FE5AE0FDF70DFE57E0FDF74EFE41
:1029C00054E0FDF7A1FF51E0FDF7BAFF4EE03A48B1
:1029D0000078801C40B238490870084690F9000021
:1029E000322801DD3220087040E033480078801E34
:1029F00040B231490870084690F90000142801DA05
:102A00001420087032E021480078401C1F490870EB
:102A100008460078642801DD6420087026E01B4821
:102A2000007810B901201949087018480078401E34
:102A3000164908701AE013480078401C11490870C4
:102A400008460078642801DD642008700EE00D4817
:102A5000007810B901200B4908700A480078401E20
:102A60000849087002E002E0FFE700BF00BFD4E6BB
:102A700000200140080000200A0000200B00002078
:102A800010000020190000200000E03F1800002086
:102A90007B14AE47E17A943F140000204C000020E4
:102AA0000D000020300000202C0000200C00002031
:102AB0001A0000201D0000202200002080FC96E566
:102AC00084FC0008C8494AC808080000807F024CFE
:102AD000807F80601F00003F40407800BABD20200A
:102AE0002020202020FF2020202020202000808067
:102AF0004020100C1360030C102040808000CCABF1
:102B00000000F888888888FF88888888F800000096
:102B100000001F080808087F888888889F80F000C8
:102B2000B5E780828282828282E2A2928A86828055
:102B30008000000000000040807F000000000000D6
:102B40000000D7D304040484E43C2724242424E490
:102B50000404040004020100FF0909090949897FEE
:102B600000000000D3D000FE225A8600FE9292920E
:102B70009292FE00000000FF04080700FF402003BF
:102B80000C1422414000CFDE008040201806800057
:102B90000718204080000000010020702826212016
:102BA0002024386000010100B9AB0010129292920B
:102BB000929292121202FE0000000000003F1010DC
:102BC00010103F0040807F000000CBBE000000FCE2
:102BD000000000000000000C0C00000021000804B0
:102BE000020804020000000000000000002220E0B3
:102BF0003820A0782000020F02020F0202002300FA
:102C00003048FC883000000006081F080700002438
:102C10007088F0806098000000080601070807002F
:102C20002500F08848B08080000708090A040B08D6
:102C3000042610160E000000000000000000000036
:102C4000000027000000E018040200000000030458
:102C50000810002800020418E00000000010080618
:102C600001000000292020C0F8C020200001010040
:102C700007000101002A404040F8404040000000A9
:102C80000003000000002B000000000000000020F6
:102C90002C1C00000000002C004040404040404000
:102CA00000000000000000002D00000000000000F7
:102CB00000000C0C00000000002E00000000C030DE
:102CC0000C0200100C03000000002F00E0100808A8
:102CD00018E000000304080804030030001010F896
:102CE000000000000008080F08080000310030084C
:102CF0000808887000000C0A0A09080C003200302D
:102D0000084848C8300000060808080403003300DB
:102D100080601008FC00000001020A0A0F0800345D
:102D200000F888484888880000060808080403005E
:102D30003500E090484898800000030C0808040320
:102D4000003600380888681808000000000F0000EE
:102D5000000037003048888848300000070908081C
:102D60000906003800E090080890E00000000C0917
:102D7000090403003900000060600000000000004A
:102D80000C0C0000003A00000040000000000000B1
:102D90002018000000003B0040A0101008040000B4
:102DA000000001020204003C2020202020202000FE
:102DB00001010101010101003D0004081010A040C3
:102DC0000000040202010000003E00382404844494
:102DD00038000000000C0D0000003FE010C828E89B
:102DE00018F00003040B0A090A0500400000E0186F
:102DF00070800000080E0901010B0C084108F8481A
:102E00004848B00000080F08080804070042E01016
:102E100008080808380003040808080402004308EA
:102E2000F808080810E000080F0808080403004428
:102E300008F88888C8081000080F08080908040066
:102E40004508F88888C8081000080F08000100002D
:102E50000046E010080808380000030408080907C5
:102E600001004708F888808088F808080F080000EB
:102E7000080F0848000808F8080800000008080FB4
:102E8000080800004900000808F808080030202061
:102E9000201F0000004A08F8C8C028180800080FC2
:102EA00008000B0C08004B08F808000000000008A0
:102EB0000F080808080C004C08F8788078F808001B
:102EC000080F000F000F08004D08F830C00008F888
:102ED00008080F080003040F004EE010080808104F
:102EE000E00003040808080403004F08F8888888F5
:102EF000887000080F08000000000050E01008086B
:102F00000810E00003040A0A0C1413005108F848E2
:102F100048C8483000080F080001030C0852007030
:102F2000488888081800000E080808090700531888
:102F30000808F8080818000000080F0800000054EE
:102F400008F808000008F80800070808080C07003F
:102F5000550838C80000E838080000030C070000D6
:102F60000056F80800F88008F800010E0701030E6B
:102F7000010057081828C0C0381808080C0E0101B5
:102F80000A0C085808186880681808000000080F24
:102F900008000000591008088868180800080C0B81
:102FA00008080804005A000000FE020202000000A7
:102FB000001F101010005B0004186080000000006B
:102FC000000000030C10005C00020202FE00000082
:102FD000001010101F0000005D0000040202020437
:102FE0000000000000000000005E00000000000083
:102FF000000020202020202020205F000002000070
:103000000000000000000000000000600080404060
:103010004040800000040A0909090F086108F840CF
:103020004040808000000F08080808070062008008
:10303000C040404080000007040808080400630006
:103040000080404048F8000007080808080F08649E
:103050000080404040408000000709090909050040
:1030600065004040F0484848180008080F0808006C
:1030700000660080404040C04000001D2A2A2A29E6
:1030800010006708F8804040408000080F080000EA
:10309000080F0868004048C8000000000008080F3A
:1030A00008080000690000004048C8000000202017
:1030B00020201F00006A08F80000C0404000080FF0
:1030C0000A010E0C08006B000808F8000000000060
:1030D00008080F080800006C40C04040C04040C0D5
:1030E000080F08000F08000F6D40C080404080802E
:1030F00000080F080000080F086E008040404040A4
:10310000800000070808080807006F40C0804040A2
:10311000808000203F280808040300700080804061
:103120004040C0000007080808283F20714040C008
:10313000804040400008080F08080000007200802E
:1031400040404040C000000C09090A0A0400730016
:103150004040F040400000000000070808000074F4
:1031600040C000000040C0000007080808080F0821
:103170007540C040000040C0400000070806010044
:103180000076C04000C00040C040030C0403070CA0
:103190000300770040C08040C0400000080C0F03CF
:1031A0000C08007840C040000040C0402020231C94
:1031B000060300007900C0404040C0400000080CF9
:1031C0000A09080C007A0000000040BC020200005E
:1031D0000000000F10107B00000000FF0000000046
:1031E0000000003F0000007C000202BC4000000024
:1031F0000010100F000000007D0000000000000023
:103200000000000000000000002000002C32000838
:10321000000000206C0000003424000898320008F0
:103220006C0000202C040000442400080000000072
:1032300028282828000000004900000000000000A5
:1032400064000000323200000000000000001E0098
:10325000000000000000000000000000000000006E
:10326000000000000000000000000000000000005E
:1032700000000000000000009600000000000000B8
:103280000000010203040102030406070809020406
:08329000060800000000000028
:0400000508000131BD
:00000001FF
